{
  "_format": "hh-sol-artifact-1",
  "contractName": "CrowdFunding",
  "sourceName": "contracts/CrowdFunding.sol",
  "abi": [
    {
      "inputs": [
        {
          "internalType": "address",
          "name": "_campaignAddress",
          "type": "address"
        }
      ],
      "name": "addCampaign",
      "outputs": [
        {
          "internalType": "uint256",
          "name": "",
          "type": "uint256"
        }
      ],
      "stateMutability": "nonpayable",
      "type": "function"
    },
    {
      "inputs": [],
      "name": "getCampaigns",
      "outputs": [
        {
          "internalType": "address[]",
          "name": "",
          "type": "address[]"
        }
      ],
      "stateMutability": "view",
      "type": "function"
    },
    {
      "inputs": [],
      "name": "numberOfCampaigns",
      "outputs": [
        {
          "internalType": "uint256",
          "name": "",
          "type": "uint256"
        }
      ],
      "stateMutability": "view",
      "type": "function"
    }
  ],
  "bytecode": "0x6080604052600060025534801561001557600080fd5b50610384806100256000396000f3fe608060405234801561001057600080fd5b50600436106100415760003560e01c806307ca140d14610046578063a6b0363314610062578063ac9c4fd314610077575b600080fd5b61004f60025481565b6040519081526020015b60405180910390f35b61006a61008a565b6040516100599190610264565b61004f6100853660046102b1565b610144565b6060600060025467ffffffffffffffff8111156100a9576100a96102da565b6040519080825280602002602001820160405280156100d2578160200160208202803683370190505b50905060005b60025481101561013e5760008181526020819052604090205482516001600160a01b03909116908190849084908110610113576101136102f0565b6001600160a01b039092166020928302919091019091015250806101368161031c565b9150506100d8565b50919050565b6001600160a01b0381166000908152600160205260408120546002546101b7576002805460009081526020818152604080832080546001600160a01b0319166001600160a01b03891690811790915584549084526001909252822081905591906101ad8361031c565b919050555061024e565b801580156101fa575060008080526020527fad3228b676f7d3cd4284a5443f17f1962b36e491b30a40b2405849e597ba5fb5546001600160a01b03848116911614155b1561024e576002805460009081526020818152604080832080546001600160a01b0319166001600160a01b03891690811790915584549084526001909252822081905591906102488361031c565b91905055505b600160025461025d9190610337565b9392505050565b6020808252825182820181905260009190848201906040850190845b818110156102a55783516001600160a01b031683529284019291840191600101610280565b50909695505050505050565b6000602082840312156102c357600080fd5b81356001600160a01b038116811461025d57600080fd5b634e487b7160e01b600052604160045260246000fd5b634e487b7160e01b600052603260045260246000fd5b634e487b7160e01b600052601160045260246000fd5b600060001982141561033057610330610306565b5060010190565b60008282101561034957610349610306565b50039056fea2646970667358221220ee086353c07514517e038b67c6f0e48c0f45bc7ade95f8a67e494a88d8c077b164736f6c63430008090033",
  "linkReferences": {},
  "deployedLinkReferences": {}
}