{
  "_format": "hh-sol-artifact-1",
  "contractName": "Campaign",
  "sourceName": "contracts/Campaign.sol",
  "abi": [
    {
      "inputs": [
        {
          "internalType": "string",
          "name": "title",
          "type": "string"
        },
        {
          "internalType": "string",
          "name": "campaignDescription",
          "type": "string"
        },
        {
          "internalType": "uint256",
          "name": "target",
          "type": "uint256"
        },
        {
          "internalType": "uint256",
          "name": "deadline",
          "type": "uint256"
        },
        {
          "internalType": "string",
          "name": "image",
          "type": "string"
        }
      ],
      "stateMutability": "nonpayable",
      "type": "constructor"
    },
    {
      "anonymous": false,
      "inputs": [
        {
          "indexed": true,
          "internalType": "address",
          "name": "previousOwner",
          "type": "address"
        },
        {
          "indexed": true,
          "internalType": "address",
          "name": "newOwner",
          "type": "address"
        }
      ],
      "name": "OwnershipTransferred",
      "type": "event"
    },
    {
      "inputs": [],
      "name": "amountCollected",
      "outputs": [
        {
          "internalType": "uint256",
          "name": "",
          "type": "uint256"
        }
      ],
      "stateMutability": "view",
      "type": "function"
    },
    {
      "inputs": [],
      "name": "description",
      "outputs": [
        {
          "components": [
            {
              "internalType": "string",
              "name": "title",
              "type": "string"
            },
            {
              "internalType": "string",
              "name": "description",
              "type": "string"
            },
            {
              "internalType": "uint256",
              "name": "target",
              "type": "uint256"
            },
            {
              "internalType": "uint256",
              "name": "deadline",
              "type": "uint256"
            },
            {
              "internalType": "string",
              "name": "image",
              "type": "string"
            }
          ],
          "internalType": "struct Campaign.Description",
          "name": "",
          "type": "tuple"
        }
      ],
      "stateMutability": "view",
      "type": "function"
    },
    {
      "inputs": [
        {
          "internalType": "uint256",
          "name": "amount",
          "type": "uint256"
        }
      ],
      "name": "donate",
      "outputs": [
        {
          "internalType": "uint256",
          "name": "",
          "type": "uint256"
        }
      ],
      "stateMutability": "payable",
      "type": "function"
    },
    {
      "inputs": [
        {
          "internalType": "address",
          "name": "donatorAddress",
          "type": "address"
        }
      ],
      "name": "donator",
      "outputs": [
        {
          "components": [
            {
              "internalType": "address",
              "name": "donator",
              "type": "address"
            },
            {
              "internalType": "uint256",
              "name": "totalDonated",
              "type": "uint256"
            }
          ],
          "internalType": "struct Campaign.Donator",
          "name": "",
          "type": "tuple"
        }
      ],
      "stateMutability": "view",
      "type": "function"
    },
    {
      "inputs": [],
      "name": "donators",
      "outputs": [
        {
          "components": [
            {
              "internalType": "address",
              "name": "donator",
              "type": "address"
            },
            {
              "internalType": "uint256",
              "name": "totalDonated",
              "type": "uint256"
            }
          ],
          "internalType": "struct Campaign.Donator[]",
          "name": "",
          "type": "tuple[]"
        }
      ],
      "stateMutability": "view",
      "type": "function"
    },
    {
      "inputs": [],
      "name": "owner",
      "outputs": [
        {
          "internalType": "address",
          "name": "",
          "type": "address"
        }
      ],
      "stateMutability": "view",
      "type": "function"
    },
    {
      "inputs": [],
      "name": "renounceOwnership",
      "outputs": [],
      "stateMutability": "nonpayable",
      "type": "function"
    },
    {
      "inputs": [
        {
          "internalType": "address",
          "name": "newOwner",
          "type": "address"
        }
      ],
      "name": "transferOwnership",
      "outputs": [],
      "stateMutability": "nonpayable",
      "type": "function"
    },
    {
      "inputs": [
        {
          "internalType": "uint256",
          "name": "amount",
          "type": "uint256"
        }
      ],
      "name": "withdraw",
      "outputs": [
        {
          "internalType": "uint256",
          "name": "",
          "type": "uint256"
        }
      ],
      "stateMutability": "nonpayable",
      "type": "function"
    },
    {
      "inputs": [],
      "name": "withdrawCampaign",
      "outputs": [],
      "stateMutability": "nonpayable",
      "type": "function"
    },
    {
      "stateMutability": "payable",
      "type": "receive"
    }
  ],
  "bytecode": "0x60806040523480156200001157600080fd5b5060405162000ed838038062000ed883398101604081905262000034916200025f565b6200003f336200009c565b845162000054906001906020880190620000ec565b5083516200006a906002906020870190620000ec565b506003839055600482905580516200008a906005906020840190620000ec565b50506000600755506200034192505050565b600080546001600160a01b038381166001600160a01b0319831681178455604051919092169283917f8be0079c531659141344cd1fd0a4f28419497f9722a3daafe3b4186f6b6457e09190a35050565b828054620000fa9062000304565b90600052602060002090601f0160209004810192826200011e576000855562000169565b82601f106200013957805160ff191683800117855562000169565b8280016001018555821562000169579182015b82811115620001695782518255916020019190600101906200014c565b50620001779291506200017b565b5090565b5b808211156200017757600081556001016200017c565b634e487b7160e01b600052604160045260246000fd5b600082601f830112620001ba57600080fd5b81516001600160401b0380821115620001d757620001d762000192565b604051601f8301601f19908116603f0116810190828211818310171562000202576200020262000192565b816040528381526020925086838588010111156200021f57600080fd5b600091505b8382101562000243578582018301518183018401529082019062000224565b83821115620002555760008385830101525b9695505050505050565b600080600080600060a086880312156200027857600080fd5b85516001600160401b03808211156200029057600080fd5b6200029e89838a01620001a8565b96506020880151915080821115620002b557600080fd5b620002c389838a01620001a8565b955060408801519450606088015193506080880151915080821115620002e857600080fd5b50620002f788828901620001a8565b9150509295509295909350565b600181811c908216806200031957607f821691505b602082108114156200033b57634e487b7160e01b600052602260045260246000fd5b50919050565b610b8780620003516000396000f3fe6080604052600436106100935760003560e01c80637284e416116100595780637284e416146101395780638da5cb5b1461015b578063cc51d89214610183578063f14faf6f1461020b578063f2fde38b1461021e57600080fd5b80626464921461009f578062c02151146100b65780632e1a7d4d146100e1578063332f7acf1461010f578063715018a61461012457600080fd5b3661009a57005b600080fd5b3480156100ab57600080fd5b506100b461023e565b005b3480156100c257600080fd5b506100cb6102ee565b6040516100d89190610925565b60405180910390f35b3480156100ed57600080fd5b506101016100fc366004610985565b6103da565b6040519081526020016100d8565b34801561011b57600080fd5b50600754610101565b34801561013057600080fd5b506100b46104b5565b34801561014557600080fd5b5061014e6104c9565b6040516100d891906109eb565b34801561016757600080fd5b506000546040516001600160a01b0390911681526020016100d8565b34801561018f57600080fd5b506101e761019e366004610a60565b604080518082018252600080825260209182018190526001600160a01b039384168152600982528290208251808401909352805490931682526001909201549181019190915290565b6040805182516001600160a01b0316815260209283015192810192909252016100d8565b610101610219366004610985565b6106d7565b34801561022a57600080fd5b506100b4610239366004610a60565b610802565b61024661087b565b600080546040516001600160a01b03909116914791839083908381818185875af1925050503d8060008114610297576040519150601f19603f3d011682016040523d82523d6000602084013e61029c565b606091505b50509050806102e95760405162461bcd60e51b81526020600482015260146024820152732330b4b632b2103a379039b2b7321022ba3432b960611b60448201526064015b60405180910390fd5b505050565b6060600060065467ffffffffffffffff81111561030d5761030d610a90565b60405190808252806020026020018201604052801561035257816020015b604080518082019091526000808252602082015281526020019060019003908161032b5790505b50905060005b6006548110156103d4576000818152600860209081526040808320546001600160a01b03908116845260098352928190208151808301909252805490931681526001909201549082015282518390839081106103b6576103b6610aa6565b602002602001018190525080806103cc90610ad2565b915050610358565b50919050565b336000908152600960205260408120600181015483111561044e5760405162461bcd60e51b815260206004820152602860248201527f596f7520646f6e2774206861766520656e6f75676820746f6b656e7320746f20604482015267776974686472617760c01b60648201526084016102e0565b604051339084156108fc029085906000818181858888f1935050505015801561047b573d6000803e3d6000fd5b50828160010160008282546104909190610aed565b9250508190555082600760008282546104a99190610aed565b90915550929392505050565b6104bd61087b565b6104c760006108d5565b565b6104fb6040518060a0016040528060608152602001606081526020016000815260200160008152602001606081525090565b60016040518060a001604052908160008201805461051890610b04565b80601f016020809104026020016040519081016040528092919081815260200182805461054490610b04565b80156105915780601f1061056657610100808354040283529160200191610591565b820191906000526020600020905b81548152906001019060200180831161057457829003601f168201915b505050505081526020016001820180546105aa90610b04565b80601f01602080910402602001604051908101604052809291908181526020018280546105d690610b04565b80156106235780601f106105f857610100808354040283529160200191610623565b820191906000526020600020905b81548152906001019060200180831161060657829003601f168201915b50505050508152602001600282015481526020016003820154815260200160048201805461065090610b04565b80601f016020809104026020016040519081016040528092919081815260200182805461067c90610b04565b80156106c95780601f1061069e576101008083540402835291602001916106c9565b820191906000526020600020905b8154815290600101906020018083116106ac57829003601f168201915b505050505081525050905090565b60008082116107285760405162461bcd60e51b815260206004820152601b60248201527f596f75206e65656420746f2073656e6420736f6d65206574686572000000000060448201526064016102e0565b8134146107775760405162461bcd60e51b815260206004820152601960248201527f496e636f727265637420646f6e6174696f6e20616d6f756e740000000000000060448201526064016102e0565b33600090815260096020526040902060018101546107d5576006805460009081526008602052604081208054336001600160a01b0319918216811790925584541617835560018301819055815491906107cf83610ad2565b91905055505b828160010160008282546107e99190610b39565b9250508190555082600760008282546104a99190610b39565b61080a61087b565b6001600160a01b03811661086f5760405162461bcd60e51b815260206004820152602660248201527f4f776e61626c653a206e6577206f776e657220697320746865207a65726f206160448201526564647265737360d01b60648201526084016102e0565b610878816108d5565b50565b6000546001600160a01b031633146104c75760405162461bcd60e51b815260206004820181905260248201527f4f776e61626c653a2063616c6c6572206973206e6f7420746865206f776e657260448201526064016102e0565b600080546001600160a01b038381166001600160a01b0319831681178455604051919092169283917f8be0079c531659141344cd1fd0a4f28419497f9722a3daafe3b4186f6b6457e09190a35050565b602080825282518282018190526000919060409081850190868401855b828110156109785761096884835180516001600160a01b03168252602090810151910152565b9284019290850190600101610942565b5091979650505050505050565b60006020828403121561099757600080fd5b5035919050565b6000815180845260005b818110156109c4576020818501810151868301820152016109a8565b818111156109d6576000602083870101525b50601f01601f19169290920160200192915050565b602081526000825160a06020840152610a0760c084018261099e565b90506020840151601f1980858403016040860152610a25838361099e565b9250604086015160608601526060860151608086015260808601519150808584030160a086015250610a57828261099e565b95945050505050565b600060208284031215610a7257600080fd5b81356001600160a01b0381168114610a8957600080fd5b9392505050565b634e487b7160e01b600052604160045260246000fd5b634e487b7160e01b600052603260045260246000fd5b634e487b7160e01b600052601160045260246000fd5b6000600019821415610ae657610ae6610abc565b5060010190565b600082821015610aff57610aff610abc565b500390565b600181811c90821680610b1857607f821691505b602082108114156103d457634e487b7160e01b600052602260045260246000fd5b60008219821115610b4c57610b4c610abc565b50019056fea264697066735822122088b15360a6037cb94905ba9d695d3bd8ef42a1f7a46e05303a1ada1fc11942fe64736f6c63430008090033",
  "linkReferences": {},
  "deployedLinkReferences": {}
}