{
  "_format": "hh-sol-artifact-1",
  "contractName": "Campaign",
  "sourceName": "contracts/Campaign.sol",
  "abi": [
    {
      "inputs": [
        {
          "internalType": "string",
          "name": "_title",
          "type": "string"
        },
        {
          "internalType": "string",
          "name": "_description",
          "type": "string"
        },
        {
          "internalType": "uint256",
          "name": "_target",
          "type": "uint256"
        },
        {
          "internalType": "uint256",
          "name": "_deadline",
          "type": "uint256"
        },
        {
          "internalType": "string",
          "name": "_image",
          "type": "string"
        }
      ],
      "stateMutability": "nonpayable",
      "type": "constructor"
    },
    {
      "anonymous": false,
      "inputs": [
        {
          "indexed": true,
          "internalType": "address",
          "name": "previousOwner",
          "type": "address"
        },
        {
          "indexed": true,
          "internalType": "address",
          "name": "newOwner",
          "type": "address"
        }
      ],
      "name": "OwnershipTransferred",
      "type": "event"
    },
    {
      "inputs": [
        {
          "internalType": "uint256",
          "name": "_amount",
          "type": "uint256"
        }
      ],
      "name": "donate",
      "outputs": [
        {
          "internalType": "uint256",
          "name": "",
          "type": "uint256"
        }
      ],
      "stateMutability": "payable",
      "type": "function"
    },
    {
      "inputs": [],
      "name": "getAmountCollected",
      "outputs": [
        {
          "internalType": "uint256",
          "name": "",
          "type": "uint256"
        }
      ],
      "stateMutability": "view",
      "type": "function"
    },
    {
      "inputs": [],
      "name": "getDescription",
      "outputs": [
        {
          "components": [
            {
              "internalType": "string",
              "name": "title",
              "type": "string"
            },
            {
              "internalType": "string",
              "name": "description",
              "type": "string"
            },
            {
              "internalType": "uint256",
              "name": "target",
              "type": "uint256"
            },
            {
              "internalType": "uint256",
              "name": "deadline",
              "type": "uint256"
            },
            {
              "internalType": "string",
              "name": "image",
              "type": "string"
            }
          ],
          "internalType": "struct Campaign.Description",
          "name": "",
          "type": "tuple"
        }
      ],
      "stateMutability": "view",
      "type": "function"
    },
    {
      "inputs": [
        {
          "internalType": "address",
          "name": "_donator",
          "type": "address"
        }
      ],
      "name": "getDonator",
      "outputs": [
        {
          "components": [
            {
              "internalType": "address",
              "name": "donator",
              "type": "address"
            },
            {
              "internalType": "uint256",
              "name": "totalDonated",
              "type": "uint256"
            }
          ],
          "internalType": "struct Campaign.Donator",
          "name": "",
          "type": "tuple"
        }
      ],
      "stateMutability": "view",
      "type": "function"
    },
    {
      "inputs": [],
      "name": "getDonators",
      "outputs": [
        {
          "components": [
            {
              "internalType": "address",
              "name": "donator",
              "type": "address"
            },
            {
              "internalType": "uint256",
              "name": "totalDonated",
              "type": "uint256"
            }
          ],
          "internalType": "struct Campaign.Donator[]",
          "name": "",
          "type": "tuple[]"
        }
      ],
      "stateMutability": "view",
      "type": "function"
    },
    {
      "inputs": [],
      "name": "owner",
      "outputs": [
        {
          "internalType": "address",
          "name": "",
          "type": "address"
        }
      ],
      "stateMutability": "view",
      "type": "function"
    },
    {
      "inputs": [],
      "name": "renounceOwnership",
      "outputs": [],
      "stateMutability": "nonpayable",
      "type": "function"
    },
    {
      "inputs": [
        {
          "internalType": "address",
          "name": "newOwner",
          "type": "address"
        }
      ],
      "name": "transferOwnership",
      "outputs": [],
      "stateMutability": "nonpayable",
      "type": "function"
    },
    {
      "inputs": [
        {
          "internalType": "uint256",
          "name": "_amount",
          "type": "uint256"
        }
      ],
      "name": "withdraw",
      "outputs": [
        {
          "internalType": "uint256",
          "name": "",
          "type": "uint256"
        }
      ],
      "stateMutability": "nonpayable",
      "type": "function"
    },
    {
      "stateMutability": "payable",
      "type": "receive"
    }
  ],
  "bytecode": "0x60806040523480156200001157600080fd5b5060405162000e7438038062000e748339810160408190526200003491620002c4565b6200003f3362000101565b428211620000a45760405162461bcd60e51b815260206004820152602860248201527f54686520646561646c696e652073686f756c642062652061206461746520696e60448201526710333aba3ab9329760c11b606482015260840160405180910390fd5b8451620000b990600190602088019062000151565b508351620000cf90600290602087019062000151565b50600383905560048290558051620000ef90600590602084019062000151565b5050600060075550620003a692505050565b600080546001600160a01b038381166001600160a01b0319831681178455604051919092169283917f8be0079c531659141344cd1fd0a4f28419497f9722a3daafe3b4186f6b6457e09190a35050565b8280546200015f9062000369565b90600052602060002090601f016020900481019282620001835760008555620001ce565b82601f106200019e57805160ff1916838001178555620001ce565b82800160010185558215620001ce579182015b82811115620001ce578251825591602001919060010190620001b1565b50620001dc929150620001e0565b5090565b5b80821115620001dc5760008155600101620001e1565b634e487b7160e01b600052604160045260246000fd5b600082601f8301126200021f57600080fd5b81516001600160401b03808211156200023c576200023c620001f7565b604051601f8301601f19908116603f01168101908282118183101715620002675762000267620001f7565b816040528381526020925086838588010111156200028457600080fd5b600091505b83821015620002a8578582018301518183018401529082019062000289565b83821115620002ba5760008385830101525b9695505050505050565b600080600080600060a08688031215620002dd57600080fd5b85516001600160401b0380821115620002f557600080fd5b6200030389838a016200020d565b965060208801519150808211156200031a57600080fd5b6200032889838a016200020d565b9550604088015194506060880151935060808801519150808211156200034d57600080fd5b506200035c888289016200020d565b9150509295509295909350565b600181811c908216806200037e57607f821691505b60208210811415620003a057634e487b7160e01b600052602260045260246000fd5b50919050565b610abe80620003b66000396000f3fe60806040526004361061008a5760003560e01c8063828cfdfd11610059578063828cfdfd1461018e5780638da5cb5b146101a3578063bf1482fa146101cb578063f14faf6f146101ed578063f2fde38b1461020057600080fd5b80631a0925411461009657806323c4948c146100c15780632e1a7d4d14610149578063715018a61461017757600080fd5b3661009157005b600080fd5b3480156100a257600080fd5b506100ab610220565b6040516100b891906108a9565b60405180910390f35b3480156100cd57600080fd5b506101256100dc36600461091e565b604080518082018252600080825260209182018190526001600160a01b039384168152600982528290208251808401909352805490931682526001909201549181019190915290565b6040805182516001600160a01b0316815260209283015192810192909252016100b8565b34801561015557600080fd5b5061016961016436600461094e565b61042e565b6040519081526020016100b8565b34801561018357600080fd5b5061018c61050e565b005b34801561019a57600080fd5b50600754610169565b3480156101af57600080fd5b506000546040516001600160a01b0390911681526020016100b8565b3480156101d757600080fd5b506101e0610522565b6040516100b89190610967565b6101696101fb36600461094e565b61060e565b34801561020c57600080fd5b5061018c61021b36600461091e565b610739565b6102526040518060a0016040528060608152602001606081526020016000815260200160008152602001606081525090565b60016040518060a001604052908160008201805461026f906109c7565b80601f016020809104026020016040519081016040528092919081815260200182805461029b906109c7565b80156102e85780601f106102bd576101008083540402835291602001916102e8565b820191906000526020600020905b8154815290600101906020018083116102cb57829003601f168201915b50505050508152602001600182018054610301906109c7565b80601f016020809104026020016040519081016040528092919081815260200182805461032d906109c7565b801561037a5780601f1061034f5761010080835404028352916020019161037a565b820191906000526020600020905b81548152906001019060200180831161035d57829003601f168201915b5050505050815260200160028201548152602001600382015481526020016004820180546103a7906109c7565b80601f01602080910402602001604051908101604052809291908181526020018280546103d3906109c7565b80156104205780601f106103f557610100808354040283529160200191610420565b820191906000526020600020905b81548152906001019060200180831161040357829003601f168201915b505050505081525050905090565b33600090815260096020526040812060018101548311156104a75760405162461bcd60e51b815260206004820152602860248201527f596f7520646f6e2774206861766520656e6f75676820746f6b656e7320746f20604482015267776974686472617760c01b60648201526084015b60405180910390fd5b604051339084156108fc029085906000818181858888f193505050501580156104d4573d6000803e3d6000fd5b50828160010160008282546104e99190610a12565b9250508190555082600760008282546105029190610a12565b90915550929392505050565b6105166107b2565b610520600061080c565b565b6060600060065467ffffffffffffffff81111561054157610541610a29565b60405190808252806020026020018201604052801561058657816020015b604080518082019091526000808252602082015281526020019060019003908161055f5790505b50905060005b600654811015610608576000818152600860209081526040808320546001600160a01b03908116845260098352928190208151808301909252805490931681526001909201549082015282518390839081106105ea576105ea610a3f565b6020026020010181905250808061060090610a55565b91505061058c565b50919050565b600080821161065f5760405162461bcd60e51b815260206004820152601b60248201527f596f75206e65656420746f2073656e6420736f6d652065746865720000000000604482015260640161049e565b8134146106ae5760405162461bcd60e51b815260206004820152601960248201527f496e636f727265637420646f6e6174696f6e20616d6f756e7400000000000000604482015260640161049e565b336000908152600960205260409020600181015461070c576006805460009081526008602052604081208054336001600160a01b03199182168117909255845416178355600183018190558154919061070683610a55565b91905055505b828160010160008282546107209190610a70565b9250508190555082600760008282546105029190610a70565b6107416107b2565b6001600160a01b0381166107a65760405162461bcd60e51b815260206004820152602660248201527f4f776e61626c653a206e6577206f776e657220697320746865207a65726f206160448201526564647265737360d01b606482015260840161049e565b6107af8161080c565b50565b6000546001600160a01b031633146105205760405162461bcd60e51b815260206004820181905260248201527f4f776e61626c653a2063616c6c6572206973206e6f7420746865206f776e6572604482015260640161049e565b600080546001600160a01b038381166001600160a01b0319831681178455604051919092169283917f8be0079c531659141344cd1fd0a4f28419497f9722a3daafe3b4186f6b6457e09190a35050565b6000815180845260005b8181101561088257602081850181015186830182015201610866565b81811115610894576000602083870101525b50601f01601f19169290920160200192915050565b602081526000825160a060208401526108c560c084018261085c565b90506020840151601f19808584030160408601526108e3838361085c565b9250604086015160608601526060860151608086015260808601519150808584030160a086015250610915828261085c565b95945050505050565b60006020828403121561093057600080fd5b81356001600160a01b038116811461094757600080fd5b9392505050565b60006020828403121561096057600080fd5b5035919050565b602080825282518282018190526000919060409081850190868401855b828110156109ba576109aa84835180516001600160a01b03168252602090810151910152565b9284019290850190600101610984565b5091979650505050505050565b600181811c908216806109db57607f821691505b6020821081141561060857634e487b7160e01b600052602260045260246000fd5b634e487b7160e01b600052601160045260246000fd5b600082821015610a2457610a246109fc565b500390565b634e487b7160e01b600052604160045260246000fd5b634e487b7160e01b600052603260045260246000fd5b6000600019821415610a6957610a696109fc565b5060010190565b60008219821115610a8357610a836109fc565b50019056fea2646970667358221220396911b06d8ca5243770a8e7ec0bbe0d34a99a943ba9e62a0bea9ec65d4d5a4564736f6c63430008090033",
  "linkReferences": {},
  "deployedLinkReferences": {}
}