{
  "_format": "hh-sol-artifact-1",
  "contractName": "Campaign",
  "sourceName": "contracts/Campaign.sol",
  "abi": [
    {
      "inputs": [
        {
          "internalType": "string",
          "name": "title",
          "type": "string"
        },
        {
          "internalType": "string",
          "name": "campaignDescription",
          "type": "string"
        },
        {
          "internalType": "uint256",
          "name": "target",
          "type": "uint256"
        },
        {
          "internalType": "uint256",
          "name": "deadline",
          "type": "uint256"
        },
        {
          "internalType": "string",
          "name": "image",
          "type": "string"
        }
      ],
      "stateMutability": "nonpayable",
      "type": "constructor"
    },
    {
      "anonymous": false,
      "inputs": [
        {
          "indexed": true,
          "internalType": "address",
          "name": "previousOwner",
          "type": "address"
        },
        {
          "indexed": true,
          "internalType": "address",
          "name": "newOwner",
          "type": "address"
        }
      ],
      "name": "OwnershipTransferred",
      "type": "event"
    },
    {
      "inputs": [],
      "name": "amountCollected",
      "outputs": [
        {
          "internalType": "uint256",
          "name": "",
          "type": "uint256"
        }
      ],
      "stateMutability": "view",
      "type": "function"
    },
    {
      "inputs": [],
      "name": "description",
      "outputs": [
        {
          "components": [
            {
              "internalType": "string",
              "name": "title",
              "type": "string"
            },
            {
              "internalType": "string",
              "name": "description",
              "type": "string"
            },
            {
              "internalType": "uint256",
              "name": "target",
              "type": "uint256"
            },
            {
              "internalType": "uint256",
              "name": "deadline",
              "type": "uint256"
            },
            {
              "internalType": "string",
              "name": "image",
              "type": "string"
            }
          ],
          "internalType": "struct Campaign.Description",
          "name": "",
          "type": "tuple"
        }
      ],
      "stateMutability": "view",
      "type": "function"
    },
    {
      "inputs": [
        {
          "internalType": "uint256",
          "name": "amount",
          "type": "uint256"
        }
      ],
      "name": "donate",
      "outputs": [
        {
          "internalType": "uint256",
          "name": "",
          "type": "uint256"
        }
      ],
      "stateMutability": "payable",
      "type": "function"
    },
    {
      "inputs": [
        {
          "internalType": "address",
          "name": "donatorAddress",
          "type": "address"
        }
      ],
      "name": "donator",
      "outputs": [
        {
          "components": [
            {
              "internalType": "address",
              "name": "donator",
              "type": "address"
            },
            {
              "internalType": "uint256",
              "name": "totalDonated",
              "type": "uint256"
            }
          ],
          "internalType": "struct Campaign.Donator",
          "name": "",
          "type": "tuple"
        }
      ],
      "stateMutability": "view",
      "type": "function"
    },
    {
      "inputs": [],
      "name": "donators",
      "outputs": [
        {
          "components": [
            {
              "internalType": "address",
              "name": "donator",
              "type": "address"
            },
            {
              "internalType": "uint256",
              "name": "totalDonated",
              "type": "uint256"
            }
          ],
          "internalType": "struct Campaign.Donator[]",
          "name": "",
          "type": "tuple[]"
        }
      ],
      "stateMutability": "view",
      "type": "function"
    },
    {
      "inputs": [],
      "name": "owner",
      "outputs": [
        {
          "internalType": "address",
          "name": "",
          "type": "address"
        }
      ],
      "stateMutability": "view",
      "type": "function"
    },
    {
      "inputs": [],
      "name": "renounceOwnership",
      "outputs": [],
      "stateMutability": "nonpayable",
      "type": "function"
    },
    {
      "inputs": [
        {
          "internalType": "address",
          "name": "newOwner",
          "type": "address"
        }
      ],
      "name": "transferOwnership",
      "outputs": [],
      "stateMutability": "nonpayable",
      "type": "function"
    },
    {
      "inputs": [
        {
          "internalType": "uint256",
          "name": "amount",
          "type": "uint256"
        }
      ],
      "name": "withdraw",
      "outputs": [
        {
          "internalType": "uint256",
          "name": "",
          "type": "uint256"
        }
      ],
      "stateMutability": "nonpayable",
      "type": "function"
    },
    {
      "inputs": [],
      "name": "withdrawCampaign",
      "outputs": [
        {
          "internalType": "uint256",
          "name": "",
          "type": "uint256"
        }
      ],
      "stateMutability": "nonpayable",
      "type": "function"
    },
    {
      "stateMutability": "payable",
      "type": "receive"
    }
  ],
  "bytecode": "0x60806040523480156200001157600080fd5b5060405162000fab38038062000fab8339810160408190526200003491620002c4565b6200003f3362000101565b428211620000a45760405162461bcd60e51b815260206004820152602860248201527f54686520646561646c696e652073686f756c642062652061206461746520696e60448201526710333aba3ab9329760c11b606482015260840160405180910390fd5b8451620000b990600190602088019062000151565b508351620000cf90600290602087019062000151565b50600383905560048290558051620000ef90600590602084019062000151565b5050600060075550620003a692505050565b600080546001600160a01b038381166001600160a01b0319831681178455604051919092169283917f8be0079c531659141344cd1fd0a4f28419497f9722a3daafe3b4186f6b6457e09190a35050565b8280546200015f9062000369565b90600052602060002090601f016020900481019282620001835760008555620001ce565b82601f106200019e57805160ff1916838001178555620001ce565b82800160010185558215620001ce579182015b82811115620001ce578251825591602001919060010190620001b1565b50620001dc929150620001e0565b5090565b5b80821115620001dc5760008155600101620001e1565b634e487b7160e01b600052604160045260246000fd5b600082601f8301126200021f57600080fd5b81516001600160401b03808211156200023c576200023c620001f7565b604051601f8301601f19908116603f01168101908282118183101715620002675762000267620001f7565b816040528381526020925086838588010111156200028457600080fd5b600091505b83821015620002a8578582018301518183018401529082019062000289565b83821115620002ba5760008385830101525b9695505050505050565b600080600080600060a08688031215620002dd57600080fd5b85516001600160401b0380821115620002f557600080fd5b6200030389838a016200020d565b965060208801519150808211156200031a57600080fd5b6200032889838a016200020d565b9550604088015194506060880151935060808801519150808211156200034d57600080fd5b506200035c888289016200020d565b9150509295509295909350565b600181811c908216806200037e57607f821691505b60208210811415620003a057634e487b7160e01b600052602260045260246000fd5b50919050565b610bf580620003b66000396000f3fe6080604052600436106100935760003560e01c80637284e416116100595780637284e416146101355780638da5cb5b14610157578063cc51d8921461017f578063f14faf6f14610207578063f2fde38b1461021a57600080fd5b80626464921461009f578062c02151146100c75780632e1a7d4d146100e9578063332f7acf14610109578063715018a61461011e57600080fd5b3661009a57005b600080fd5b3480156100ab57600080fd5b506100b461023a565b6040519081526020015b60405180910390f35b3480156100d357600080fd5b506100dc6102c8565b6040516100be919061098d565b3480156100f557600080fd5b506100b46101043660046109ed565b6103ae565b34801561011557600080fd5b506007546100b4565b34801561012a57600080fd5b506101336104d1565b005b34801561014157600080fd5b5061014a6104e5565b6040516100be9190610a53565b34801561016357600080fd5b506000546040516001600160a01b0390911681526020016100be565b34801561018b57600080fd5b506101e361019a366004610ac8565b604080518082018252600080825260209182018190526001600160a01b039384168152600982528290208251808401909352805490931682526001909201549181019190915290565b6040805182516001600160a01b0316815260209283015192810192909252016100be565b6100b46102153660046109ed565b6106f3565b34801561022657600080fd5b50610133610235366004610ac8565b61086a565b60006102446108e3565b6004544210156102945760405162461bcd60e51b815260206004820152601660248201527543616d706169676e207374696c6c2072756e6e696e6760501b60448201526064015b60405180910390fd5b604051479033904780156108fc02916000818181858888f193505050501580156102c2573d6000803e3d6000fd5b50905090565b6060600060065467ffffffffffffffff8111156102e7576102e7610af8565b60405190808252806020026020018201604052801561032c57816020015b60408051808201909152600080825260208201528152602001906001900390816103055790505b50905060005b6006548110156102c2576000818152600860209081526040808320546001600160a01b039081168452600983529281902081518083019092528054909316815260019092015490820152825183908390811061039057610390610b0e565b602002602001018190525080806103a690610b3a565b915050610332565b3360009081526009602052604081206004544210156104055760405162461bcd60e51b8152602060048201526013602482015272151a194818d85b5c185a59db881a5cc8195b99606a1b604482015260640161028b565b828160010154101561046a5760405162461bcd60e51b815260206004820152602860248201527f596f7520646f6e2774206861766520656e6f75676820746f6b656e7320746f20604482015267776974686472617760c01b606482015260840161028b565b604051339084156108fc029085906000818181858888f19350505050158015610497573d6000803e3d6000fd5b50828160010160008282546104ac9190610b55565b9250508190555082600760008282546104c59190610b55565b90915550929392505050565b6104d96108e3565b6104e3600061093d565b565b6105176040518060a0016040528060608152602001606081526020016000815260200160008152602001606081525090565b60016040518060a001604052908160008201805461053490610b6c565b80601f016020809104026020016040519081016040528092919081815260200182805461056090610b6c565b80156105ad5780601f10610582576101008083540402835291602001916105ad565b820191906000526020600020905b81548152906001019060200180831161059057829003601f168201915b505050505081526020016001820180546105c690610b6c565b80601f01602080910402602001604051908101604052809291908181526020018280546105f290610b6c565b801561063f5780601f106106145761010080835404028352916020019161063f565b820191906000526020600020905b81548152906001019060200180831161062257829003601f168201915b50505050508152602001600282015481526020016003820154815260200160048201805461066c90610b6c565b80601f016020809104026020016040519081016040528092919081815260200182805461069890610b6c565b80156106e55780601f106106ba576101008083540402835291602001916106e5565b820191906000526020600020905b8154815290600101906020018083116106c857829003601f168201915b505050505081525050905090565b60004260016003015411156107405760405162461bcd60e51b8152602060048201526013602482015272151a194818d85b5c185a59db881a5cc8195b99606a1b604482015260640161028b565b600082116107905760405162461bcd60e51b815260206004820152601b60248201527f596f75206e65656420746f2073656e6420736f6d652065746865720000000000604482015260640161028b565b8134146107df5760405162461bcd60e51b815260206004820152601960248201527f496e636f727265637420646f6e6174696f6e20616d6f756e7400000000000000604482015260640161028b565b336000908152600960205260409020600181015461083d576006805460009081526008602052604081208054336001600160a01b03199182168117909255845416178355600183018190558154919061083783610b3a565b91905055505b828160010160008282546108519190610ba7565b9250508190555082600760008282546104c59190610ba7565b6108726108e3565b6001600160a01b0381166108d75760405162461bcd60e51b815260206004820152602660248201527f4f776e61626c653a206e6577206f776e657220697320746865207a65726f206160448201526564647265737360d01b606482015260840161028b565b6108e08161093d565b50565b6000546001600160a01b031633146104e35760405162461bcd60e51b815260206004820181905260248201527f4f776e61626c653a2063616c6c6572206973206e6f7420746865206f776e6572604482015260640161028b565b600080546001600160a01b038381166001600160a01b0319831681178455604051919092169283917f8be0079c531659141344cd1fd0a4f28419497f9722a3daafe3b4186f6b6457e09190a35050565b602080825282518282018190526000919060409081850190868401855b828110156109e0576109d084835180516001600160a01b03168252602090810151910152565b92840192908501906001016109aa565b5091979650505050505050565b6000602082840312156109ff57600080fd5b5035919050565b6000815180845260005b81811015610a2c57602081850181015186830182015201610a10565b81811115610a3e576000602083870101525b50601f01601f19169290920160200192915050565b602081526000825160a06020840152610a6f60c0840182610a06565b90506020840151601f1980858403016040860152610a8d8383610a06565b9250604086015160608601526060860151608086015260808601519150808584030160a086015250610abf8282610a06565b95945050505050565b600060208284031215610ada57600080fd5b81356001600160a01b0381168114610af157600080fd5b9392505050565b634e487b7160e01b600052604160045260246000fd5b634e487b7160e01b600052603260045260246000fd5b634e487b7160e01b600052601160045260246000fd5b6000600019821415610b4e57610b4e610b24565b5060010190565b600082821015610b6757610b67610b24565b500390565b600181811c90821680610b8057607f821691505b60208210811415610ba157634e487b7160e01b600052602260045260246000fd5b50919050565b60008219821115610bba57610bba610b24565b50019056fea264697066735822122009d16960b703b8748bc240eac8a51af1014c751bcd9236c3740f07e31a978c7a64736f6c63430008090033",
  "linkReferences": {},
  "deployedLinkReferences": {}
}